APP Logon
8=FIXT.1.1|9=76|35=A|34=170|49=CLIENT|52=20221125-12:39:54.851|56=SERVER|98=0|108=30|1137=7|10=148

FusionInvest sending a logon request
8=FIXT.1.1|9=83|35=A|34=1|49=sophis|52=20221116-09:19:15.180|56=refinitiv|98=0|108=60|141=Y|1137=9|10=041


Refinitiv sending the execution report
8=FIXT.1.1|9=335|35=8|49=refinitiv|56=sophis|34=57|52=20221116-09:45:03|11=468055|38=400000|31=.37|40=1|55=EUR|60=20221116-12:44:09.635|64=20221120|423=1|37=refinitiv_g4|17=604011978|150=F|39=2|54=1|453=2|448=GFHIBHBM|447=B|452=1|448=e10680|447=C|452=11|1=account|22=2|541=20221130|58=Fixed Murabaha|23001=Zinc|23002=12.03|23003=3.65|15=EUR|32=1000000|10=019|


FusionInvest replying with an ACK
8=FIXT.1.1|9=152|35=BN|34=29|49=sophis|52=20221116-09:45:11.987|56=refinitiv|11=468055|17=604011978|32=1000000|37=refinitiv_g4|38=400000|54=1|55=EUR|541=20221130|1036=1|10=238|
